{
  "_format": "hh-sol-artifact-1",
  "contractName": "PixelminterNFT",
  "sourceName": "contracts/PixelminterNFT.sol",
  "abi": [
    {
      "inputs": [
        {
          "internalType": "uint256",
          "name": "initialFee",
          "type": "uint256"
        },
        {
          "internalType": "string",
          "name": "contractURI_",
          "type": "string"
        }
      ],
      "stateMutability": "nonpayable",
      "type": "constructor"
    },
    {
      "inputs": [
        {
          "internalType": "address",
          "name": "sender",
          "type": "address"
        },
        {
          "internalType": "uint256",
          "name": "tokenId",
          "type": "uint256"
        },
        {
          "internalType": "address",
          "name": "owner",
          "type": "address"
        }
      ],
      "name": "ERC721IncorrectOwner",
      "type": "error"
    },
    {
      "inputs": [
        {
          "internalType": "address",
          "name": "operator",
          "type": "address"
        },
        {
          "internalType": "uint256",
          "name": "tokenId",
          "type": "uint256"
        }
      ],
      "name": "ERC721InsufficientApproval",
      "type": "error"
    },
    {
      "inputs": [
        {
          "internalType": "address",
          "name": "approver",
          "type": "address"
        }
      ],
      "name": "ERC721InvalidApprover",
      "type": "error"
    },
    {
      "inputs": [
        {
          "internalType": "address",
          "name": "operator",
          "type": "address"
        }
      ],
      "name": "ERC721InvalidOperator",
      "type": "error"
    },
    {
      "inputs": [
        {
          "internalType": "address",
          "name": "owner",
          "type": "address"
        }
      ],
      "name": "ERC721InvalidOwner",
      "type": "error"
    },
    {
      "inputs": [
        {
          "internalType": "address",
          "name": "receiver",
          "type": "address"
        }
      ],
      "name": "ERC721InvalidReceiver",
      "type": "error"
    },
    {
      "inputs": [
        {
          "internalType": "address",
          "name": "sender",
          "type": "address"
        }
      ],
      "name": "ERC721InvalidSender",
      "type": "error"
    },
    {
      "inputs": [
        {
          "internalType": "uint256",
          "name": "tokenId",
          "type": "uint256"
        }
      ],
      "name": "ERC721NonexistentToken",
      "type": "error"
    },
    {
      "inputs": [
        {
          "internalType": "address",
          "name": "owner",
          "type": "address"
        }
      ],
      "name": "OwnableInvalidOwner",
      "type": "error"
    },
    {
      "inputs": [
        {
          "internalType": "address",
          "name": "account",
          "type": "address"
        }
      ],
      "name": "OwnableUnauthorizedAccount",
      "type": "error"
    },
    {
      "anonymous": false,
      "inputs": [
        {
          "indexed": true,
          "internalType": "address",
          "name": "owner",
          "type": "address"
        },
        {
          "indexed": true,
          "internalType": "address",
          "name": "approved",
          "type": "address"
        },
        {
          "indexed": true,
          "internalType": "uint256",
          "name": "tokenId",
          "type": "uint256"
        }
      ],
      "name": "Approval",
      "type": "event"
    },
    {
      "anonymous": false,
      "inputs": [
        {
          "indexed": true,
          "internalType": "address",
          "name": "owner",
          "type": "address"
        },
        {
          "indexed": true,
          "internalType": "address",
          "name": "operator",
          "type": "address"
        },
        {
          "indexed": false,
          "internalType": "bool",
          "name": "approved",
          "type": "bool"
        }
      ],
      "name": "ApprovalForAll",
      "type": "event"
    },
    {
      "anonymous": false,
      "inputs": [
        {
          "indexed": false,
          "internalType": "uint256",
          "name": "_fromTokenId",
          "type": "uint256"
        },
        {
          "indexed": false,
          "internalType": "uint256",
          "name": "_toTokenId",
          "type": "uint256"
        }
      ],
      "name": "BatchMetadataUpdate",
      "type": "event"
    },
    {
      "anonymous": false,
      "inputs": [
        {
          "indexed": false,
          "internalType": "uint256",
          "name": "newFee",
          "type": "uint256"
        }
      ],
      "name": "FeeUpdated",
      "type": "event"
    },
    {
      "anonymous": false,
      "inputs": [
        {
          "indexed": false,
          "internalType": "uint256",
          "name": "_tokenId",
          "type": "uint256"
        }
      ],
      "name": "MetadataUpdate",
      "type": "event"
    },
    {
      "anonymous": false,
      "inputs": [
        {
          "indexed": true,
          "internalType": "address",
          "name": "recipient",
          "type": "address"
        },
        {
          "indexed": true,
          "internalType": "uint256",
          "name": "tokenId",
          "type": "uint256"
        },
        {
          "indexed": false,
          "internalType": "string",
          "name": "tokenURI",
          "type": "string"
        },
        {
          "indexed": false,
          "internalType": "uint256",
          "name": "totalMinted",
          "type": "uint256"
        }
      ],
      "name": "NFTMinted",
      "type": "event"
    },
    {
      "anonymous": false,
      "inputs": [
        {
          "indexed": true,
          "internalType": "address",
          "name": "previousOwner",
          "type": "address"
        },
        {
          "indexed": true,
          "internalType": "address",
          "name": "newOwner",
          "type": "address"
        }
      ],
      "name": "OwnershipTransferred",
      "type": "event"
    },
    {
      "anonymous": false,
      "inputs": [
        {
          "indexed": true,
          "internalType": "address",
          "name": "from",
          "type": "address"
        },
        {
          "indexed": true,
          "internalType": "address",
          "name": "to",
          "type": "address"
        },
        {
          "indexed": true,
          "internalType": "uint256",
          "name": "tokenId",
          "type": "uint256"
        }
      ],
      "name": "Transfer",
      "type": "event"
    },
    {
      "inputs": [
        {
          "internalType": "address",
          "name": "to",
          "type": "address"
        },
        {
          "internalType": "uint256",
          "name": "tokenId",
          "type": "uint256"
        }
      ],
      "name": "approve",
      "outputs": [],
      "stateMutability": "nonpayable",
      "type": "function"
    },
    {
      "inputs": [
        {
          "internalType": "address",
          "name": "owner",
          "type": "address"
        }
      ],
      "name": "balanceOf",
      "outputs": [
        {
          "internalType": "uint256",
          "name": "",
          "type": "uint256"
        }
      ],
      "stateMutability": "view",
      "type": "function"
    },
    {
      "inputs": [],
      "name": "contractURI",
      "outputs": [
        {
          "internalType": "string",
          "name": "",
          "type": "string"
        }
      ],
      "stateMutability": "view",
      "type": "function"
    },
    {
      "inputs": [
        {
          "internalType": "uint256",
          "name": "tokenId",
          "type": "uint256"
        }
      ],
      "name": "getApproved",
      "outputs": [
        {
          "internalType": "address",
          "name": "",
          "type": "address"
        }
      ],
      "stateMutability": "view",
      "type": "function"
    },
    {
      "inputs": [],
      "name": "getMintFee",
      "outputs": [
        {
          "internalType": "uint256",
          "name": "",
          "type": "uint256"
        }
      ],
      "stateMutability": "view",
      "type": "function"
    },
    {
      "inputs": [
        {
          "internalType": "address",
          "name": "owner",
          "type": "address"
        },
        {
          "internalType": "address",
          "name": "operator",
          "type": "address"
        }
      ],
      "name": "isApprovedForAll",
      "outputs": [
        {
          "internalType": "bool",
          "name": "",
          "type": "bool"
        }
      ],
      "stateMutability": "view",
      "type": "function"
    },
    {
      "inputs": [
        {
          "internalType": "address",
          "name": "recipient",
          "type": "address"
        },
        {
          "internalType": "string",
          "name": "tokenURI",
          "type": "string"
        }
      ],
      "name": "mintNFT",
      "outputs": [
        {
          "internalType": "uint256",
          "name": "",
          "type": "uint256"
        }
      ],
      "stateMutability": "payable",
      "type": "function"
    },
    {
      "inputs": [],
      "name": "name",
      "outputs": [
        {
          "internalType": "string",
          "name": "",
          "type": "string"
        }
      ],
      "stateMutability": "view",
      "type": "function"
    },
    {
      "inputs": [],
      "name": "owner",
      "outputs": [
        {
          "internalType": "address",
          "name": "",
          "type": "address"
        }
      ],
      "stateMutability": "view",
      "type": "function"
    },
    {
      "inputs": [
        {
          "internalType": "uint256",
          "name": "tokenId",
          "type": "uint256"
        }
      ],
      "name": "ownerOf",
      "outputs": [
        {
          "internalType": "address",
          "name": "",
          "type": "address"
        }
      ],
      "stateMutability": "view",
      "type": "function"
    },
    {
      "inputs": [],
      "name": "renounceOwnership",
      "outputs": [],
      "stateMutability": "nonpayable",
      "type": "function"
    },
    {
      "inputs": [
        {
          "internalType": "address",
          "name": "from",
          "type": "address"
        },
        {
          "internalType": "address",
          "name": "to",
          "type": "address"
        },
        {
          "internalType": "uint256",
          "name": "tokenId",
          "type": "uint256"
        }
      ],
      "name": "safeTransferFrom",
      "outputs": [],
      "stateMutability": "nonpayable",
      "type": "function"
    },
    {
      "inputs": [
        {
          "internalType": "address",
          "name": "from",
          "type": "address"
        },
        {
          "internalType": "address",
          "name": "to",
          "type": "address"
        },
        {
          "internalType": "uint256",
          "name": "tokenId",
          "type": "uint256"
        },
        {
          "internalType": "bytes",
          "name": "data",
          "type": "bytes"
        }
      ],
      "name": "safeTransferFrom",
      "outputs": [],
      "stateMutability": "nonpayable",
      "type": "function"
    },
    {
      "inputs": [
        {
          "internalType": "address",
          "name": "operator",
          "type": "address"
        },
        {
          "internalType": "bool",
          "name": "approved",
          "type": "bool"
        }
      ],
      "name": "setApprovalForAll",
      "outputs": [],
      "stateMutability": "nonpayable",
      "type": "function"
    },
    {
      "inputs": [
        {
          "internalType": "string",
          "name": "newContractURI",
          "type": "string"
        }
      ],
      "name": "setContractURI",
      "outputs": [],
      "stateMutability": "nonpayable",
      "type": "function"
    },
    {
      "inputs": [
        {
          "internalType": "uint256",
          "name": "newFee",
          "type": "uint256"
        }
      ],
      "name": "setMintFee",
      "outputs": [],
      "stateMutability": "nonpayable",
      "type": "function"
    },
    {
      "inputs": [
        {
          "internalType": "bytes4",
          "name": "interfaceId",
          "type": "bytes4"
        }
      ],
      "name": "supportsInterface",
      "outputs": [
        {
          "internalType": "bool",
          "name": "",
          "type": "bool"
        }
      ],
      "stateMutability": "view",
      "type": "function"
    },
    {
      "inputs": [],
      "name": "symbol",
      "outputs": [
        {
          "internalType": "string",
          "name": "",
          "type": "string"
        }
      ],
      "stateMutability": "view",
      "type": "function"
    },
    {
      "inputs": [
        {
          "internalType": "uint256",
          "name": "tokenId",
          "type": "uint256"
        }
      ],
      "name": "tokenURI",
      "outputs": [
        {
          "internalType": "string",
          "name": "",
          "type": "string"
        }
      ],
      "stateMutability": "view",
      "type": "function"
    },
    {
      "inputs": [],
      "name": "totalSupply",
      "outputs": [
        {
          "internalType": "uint256",
          "name": "",
          "type": "uint256"
        }
      ],
      "stateMutability": "view",
      "type": "function"
    },
    {
      "inputs": [
        {
          "internalType": "address",
          "name": "from",
          "type": "address"
        },
        {
          "internalType": "address",
          "name": "to",
          "type": "address"
        },
        {
          "internalType": "uint256",
          "name": "tokenId",
          "type": "uint256"
        }
      ],
      "name": "transferFrom",
      "outputs": [],
      "stateMutability": "nonpayable",
      "type": "function"
    },
    {
      "inputs": [
        {
          "internalType": "address",
          "name": "newOwner",
          "type": "address"
        }
      ],
      "name": "transferOwnership",
      "outputs": [],
      "stateMutability": "nonpayable",
      "type": "function"
    },
    {
      "inputs": [],
      "name": "withdraw",
      "outputs": [],
      "stateMutability": "nonpayable",
      "type": "function"
    }
  ],
  "bytecode": "0x60806040523480156200001157600080fd5b5060405162001c3138038062001c3183398101604081905262000034916200015d565b336040518060400160405280600b81526020016a2834bc32b636b4b73a32b960a91b815250604051806040016040528060048152602001631416135560e21b8152508160009081620000879190620002cc565b506001620000968282620002cc565b5050506001600160a01b038116620000c857604051631e4fbdf760e01b81526000600482015260240160405180910390fd5b620000d381620000f5565b5060098290556001600855600a620000ec8282620002cc565b50505062000398565b600780546001600160a01b038381166001600160a01b0319831681179093556040519116919082907f8be0079c531659141344cd1fd0a4f28419497f9722a3daafe3b4186f6b6457e090600090a35050565b634e487b7160e01b600052604160045260246000fd5b600080604083850312156200017157600080fd5b8251602080850151919350906001600160401b03808211156200019357600080fd5b818601915086601f830112620001a857600080fd5b815181811115620001bd57620001bd62000147565b604051601f8201601f19908116603f01168101908382118183101715620001e857620001e862000147565b8160405282815289868487010111156200020157600080fd5b600093505b8284101562000225578484018601518185018701529285019262000206565b60008684830101528096505050505050509250929050565b600181811c908216806200025257607f821691505b6020821081036200027357634e487b7160e01b600052602260045260246000fd5b50919050565b601f821115620002c757600081815260208120601f850160051c81016020861015620002a25750805b601f850160051c820191505b81811015620002c357828155600101620002ae565b5050505b505050565b81516001600160401b03811115620002e857620002e862000147565b6200030081620002f984546200023d565b8462000279565b602080601f8311600181146200033857600084156200031f5750858301515b600019600386901b1c1916600185901b178555620002c3565b600085815260208120601f198616915b82811015620003695788860151825594840194600190910190840162000348565b5085821015620003885787850151600019600388901b60f8161c191681555b5050505050600190811b01905550565b61188980620003a86000396000f3fe6080604052600436106101405760003560e01c80637a5caab3116100b6578063c87b56dd1161006f578063c87b56dd1461036b578063e8a3d4851461038b578063e985e9c5146103a0578063eacabe14146103c0578063eddd0d9c146103d3578063f2fde38b146103f357600080fd5b80637a5caab3146102c35780638da5cb5b146102d8578063938e3d7b146102f657806395d89b4114610316578063a22cb4651461032b578063b88d4fde1461034b57600080fd5b806323b872dd1161010857806323b872dd146102195780633ccfd60b1461023957806342842e0e1461024e5780636352211e1461026e57806370a082311461028e578063715018a6146102ae57600080fd5b806301ffc9a71461014557806306fdde031461017a578063081812fc1461019c578063095ea7b3146101d457806318160ddd146101f6575b600080fd5b34801561015157600080fd5b506101656101603660046112d6565b610413565b60405190151581526020015b60405180910390f35b34801561018657600080fd5b5061018f610424565b6040516101719190611343565b3480156101a857600080fd5b506101bc6101b7366004611356565b6104b6565b6040516001600160a01b039091168152602001610171565b3480156101e057600080fd5b506101f46101ef36600461138b565b6104df565b005b34801561020257600080fd5b5061020b6104ee565b604051908152602001610171565b34801561022557600080fd5b506101f46102343660046113b5565b610504565b34801561024557600080fd5b506101f4610594565b34801561025a57600080fd5b506101f46102693660046113b5565b61061d565b34801561027a57600080fd5b506101bc610289366004611356565b61063d565b34801561029a57600080fd5b5061020b6102a93660046113f1565b610648565b3480156102ba57600080fd5b506101f4610690565b3480156102cf57600080fd5b5060095461020b565b3480156102e457600080fd5b506007546001600160a01b03166101bc565b34801561030257600080fd5b506101f46103113660046114b8565b6106a4565b34801561032257600080fd5b5061018f6106b8565b34801561033757600080fd5b506101f46103463660046114ed565b6106c7565b34801561035757600080fd5b506101f4610366366004611529565b6106d2565b34801561037757600080fd5b5061018f610386366004611356565b6106ea565b34801561039757600080fd5b5061018f6107fb565b3480156103ac57600080fd5b506101656103bb3660046115a5565b61080a565b61020b6103ce3660046115d8565b610838565b3480156103df57600080fd5b506101f46103ee366004611356565b6109ae565b3480156103ff57600080fd5b506101f461040e3660046113f1565b6109f1565b600061041e82610a2f565b92915050565b60606000805461043390611626565b80601f016020809104026020016040519081016040528092919081815260200182805461045f90611626565b80156104ac5780601f10610481576101008083540402835291602001916104ac565b820191906000526020600020905b81548152906001019060200180831161048f57829003601f168201915b5050505050905090565b60006104c182610a54565b506000828152600460205260409020546001600160a01b031661041e565b6104ea828233610a8d565b5050565b600060016008546104ff9190611676565b905090565b6001600160a01b03821661053357604051633250574960e11b8152600060048201526024015b60405180910390fd5b6000610540838333610a9a565b9050836001600160a01b0316816001600160a01b03161461058e576040516364283d7b60e01b81526001600160a01b038086166004830152602482018490528216604482015260640161052a565b50505050565b61059c610b93565b47806105e35760405162461bcd60e51b81526020600482015260166024820152754e6f2062616c616e636520746f20776974686472617760501b604482015260640161052a565b6007546040516001600160a01b039091169082156108fc029083906000818181858888f193505050501580156104ea573d6000803e3d6000fd5b610638838383604051806020016040528060008152506106d2565b505050565b600061041e82610a54565b60006001600160a01b038216610674576040516322718ad960e21b81526000600482015260240161052a565b506001600160a01b031660009081526003602052604090205490565b610698610b93565b6106a26000610bc0565b565b6106ac610b93565b600a6104ea82826116cf565b60606001805461043390611626565b6104ea338383610c12565b6106dd848484610504565b61058e3385858585610cb1565b60606106f582610a54565b506000828152600660205260408120805461070f90611626565b80601f016020809104026020016040519081016040528092919081815260200182805461073b90611626565b80156107885780601f1061075d57610100808354040283529160200191610788565b820191906000526020600020905b81548152906001019060200180831161076b57829003601f168201915b5050505050905060006107a660408051602081019091526000815290565b905080516000036107b8575092915050565b8151156107ea5780826040516020016107d292919061178f565b60405160208183030381529060405292505050919050565b6107f384610ddc565b949350505050565b6060600a805461043390611626565b6001600160a01b03918216600090815260056020908152604080832093909416825291909152205460ff1690565b60006009543410156108835760405162461bcd60e51b8152602060048201526014602482015273125b9cdd59999a58da595b9d081c185e5b595b9d60621b604482015260640161052a565b6001600160a01b0383166108d95760405162461bcd60e51b815260206004820152601960248201527f496e76616c696420726563697069656e74206164647265737300000000000000604482015260640161052a565b600082511161092a5760405162461bcd60e51b815260206004820152601960248201527f546f6b656e205552492063616e6e6f7420626520656d70747900000000000000604482015260640161052a565b60088054908190600061093c836117be565b919050555061094b8482610e51565b6109558184610e6b565b80846001600160a01b03167f7f9dd5d8fa69e733db2277a568b65a9651a3042da18fb2b5ea1966d3891cbfda8560016008546109919190611676565b60405161099f9291906117d7565b60405180910390a39392505050565b6109b6610b93565b60098190556040518181527f8c4d35e54a3f2ef1134138fd8ea3daee6a3c89e10d2665996babdf70261e2c769060200160405180910390a150565b6109f9610b93565b6001600160a01b038116610a2357604051631e4fbdf760e01b81526000600482015260240161052a565b610a2c81610bc0565b50565b60006001600160e01b03198216632483248360e11b148061041e575061041e82610ebb565b6000818152600260205260408120546001600160a01b03168061041e57604051637e27328960e01b81526004810184905260240161052a565b6106388383836001610f0b565b6000828152600260205260408120546001600160a01b0390811690831615610ac757610ac7818486611011565b6001600160a01b03811615610b0557610ae4600085600080610f0b565b6001600160a01b038116600090815260036020526040902080546000190190555b6001600160a01b03851615610b34576001600160a01b0385166000908152600360205260409020805460010190555b60008481526002602052604080822080546001600160a01b0319166001600160a01b0389811691821790925591518793918516917fddf252ad1be2c89b69c2b068fc378daa952ba7f163c4a11628f55a4df523b3ef91a4949350505050565b6007546001600160a01b031633146106a25760405163118cdaa760e01b815233600482015260240161052a565b600780546001600160a01b038381166001600160a01b0319831681179093556040519116919082907f8be0079c531659141344cd1fd0a4f28419497f9722a3daafe3b4186f6b6457e090600090a35050565b6001600160a01b038216610c4457604051630b61174360e31b81526001600160a01b038316600482015260240161052a565b6001600160a01b03838116600081815260056020908152604080832094871680845294825291829020805460ff191686151590811790915591519182527f17307eab39ab6107e8899845ad3d59bd9653f200f220920489ca2b5937696c31910160405180910390a3505050565b6001600160a01b0383163b15610dd557604051630a85bd0160e11b81526001600160a01b0384169063150b7a0290610cf39088908890879087906004016117f9565b6020604051808303816000875af1925050508015610d2e575060408051601f3d908101601f19168201909252610d2b91810190611836565b60015b610d97573d808015610d5c576040519150601f19603f3d011682016040523d82523d6000602084013e610d61565b606091505b508051600003610d8f57604051633250574960e11b81526001600160a01b038516600482015260240161052a565b805160208201fd5b6001600160e01b03198116630a85bd0160e11b14610dd357604051633250574960e11b81526001600160a01b038516600482015260240161052a565b505b5050505050565b6060610de782610a54565b506000610dff60408051602081019091526000815290565b90506000815111610e1f5760405180602001604052806000815250610e4a565b80610e2984611075565b604051602001610e3a92919061178f565b6040516020818303038152906040525b9392505050565b6104ea828260405180602001604052806000815250611108565b6000828152600660205260409020610e8382826116cf565b506040518281527ff8e1a15aba9398e019f0b49df1a4fde98ee17ae345cb5f6b5e2c27f5033e8ce79060200160405180910390a15050565b60006001600160e01b031982166380ac58cd60e01b1480610eec57506001600160e01b03198216635b5e139f60e01b145b8061041e57506301ffc9a760e01b6001600160e01b031983161461041e565b8080610f1f57506001600160a01b03821615155b15610fe1576000610f2f84610a54565b90506001600160a01b03831615801590610f5b5750826001600160a01b0316816001600160a01b031614155b8015610f6e5750610f6c818461080a565b155b15610f975760405163a9fbf51f60e01b81526001600160a01b038416600482015260240161052a565b8115610fdf5783856001600160a01b0316826001600160a01b03167f8c5be1e5ebec7d5bd14f71427d1e84f3dd0314c0f7b2291e5b200ac8c7c3b92560405160405180910390a45b505b5050600090815260046020526040902080546001600160a01b0319166001600160a01b0392909216919091179055565b61101c838383611120565b610638576001600160a01b03831661104a57604051637e27328960e01b81526004810182905260240161052a565b60405163177e802f60e01b81526001600160a01b03831660048201526024810182905260440161052a565b6060600061108283611183565b600101905060008167ffffffffffffffff8111156110a2576110a261140c565b6040519080825280601f01601f1916602001820160405280156110cc576020820181803683370190505b5090508181016020015b600019016f181899199a1a9b1b9c1cb0b131b232b360811b600a86061a8153600a85049450846110d657509392505050565b611112838361125b565b610638336000858585610cb1565b60006001600160a01b038316158015906107f35750826001600160a01b0316846001600160a01b0316148061115a575061115a848461080a565b806107f35750506000908152600460205260409020546001600160a01b03908116911614919050565b60008072184f03e93ff9f4daa797ed6e38ed64bf6a1f0160401b83106111c25772184f03e93ff9f4daa797ed6e38ed64bf6a1f0160401b830492506040015b6d04ee2d6d415b85acef810000000083106111ee576d04ee2d6d415b85acef8100000000830492506020015b662386f26fc10000831061120c57662386f26fc10000830492506010015b6305f5e1008310611224576305f5e100830492506008015b612710831061123857612710830492506004015b6064831061124a576064830492506002015b600a831061041e5760010192915050565b6001600160a01b03821661128557604051633250574960e11b81526000600482015260240161052a565b600061129383836000610a9a565b90506001600160a01b03811615610638576040516339e3563760e11b81526000600482015260240161052a565b6001600160e01b031981168114610a2c57600080fd5b6000602082840312156112e857600080fd5b8135610e4a816112c0565b60005b8381101561130e5781810151838201526020016112f6565b50506000910152565b6000815180845261132f8160208601602086016112f3565b601f01601f19169290920160200192915050565b602081526000610e4a6020830184611317565b60006020828403121561136857600080fd5b5035919050565b80356001600160a01b038116811461138657600080fd5b919050565b6000806040838503121561139e57600080fd5b6113a78361136f565b946020939093013593505050565b6000806000606084860312156113ca57600080fd5b6113d38461136f565b92506113e16020850161136f565b9150604084013590509250925092565b60006020828403121561140357600080fd5b610e4a8261136f565b634e487b7160e01b600052604160045260246000fd5b600067ffffffffffffffff8084111561143d5761143d61140c565b604051601f8501601f19908116603f011681019082821181831017156114655761146561140c565b8160405280935085815286868601111561147e57600080fd5b858560208301376000602087830101525050509392505050565b600082601f8301126114a957600080fd5b610e4a83833560208501611422565b6000602082840312156114ca57600080fd5b813567ffffffffffffffff8111156114e157600080fd5b6107f384828501611498565b6000806040838503121561150057600080fd5b6115098361136f565b91506020830135801515811461151e57600080fd5b809150509250929050565b6000806000806080858703121561153f57600080fd5b6115488561136f565b93506115566020860161136f565b925060408501359150606085013567ffffffffffffffff81111561157957600080fd5b8501601f8101871361158a57600080fd5b61159987823560208401611422565b91505092959194509250565b600080604083850312156115b857600080fd5b6115c18361136f565b91506115cf6020840161136f565b90509250929050565b600080604083850312156115eb57600080fd5b6115f48361136f565b9150602083013567ffffffffffffffff81111561161057600080fd5b61161c85828601611498565b9150509250929050565b600181811c9082168061163a57607f821691505b60208210810361165a57634e487b7160e01b600052602260045260246000fd5b50919050565b634e487b7160e01b600052601160045260246000fd5b8181038181111561041e5761041e611660565b601f82111561063857600081815260208120601f850160051c810160208610156116b05750805b601f850160051c820191505b81811015610dd3578281556001016116bc565b815167ffffffffffffffff8111156116e9576116e961140c565b6116fd816116f78454611626565b84611689565b602080601f831160018114611732576000841561171a5750858301515b600019600386901b1c1916600185901b178555610dd3565b600085815260208120601f198616915b8281101561176157888601518255948401946001909101908401611742565b508582101561177f5787850151600019600388901b60f8161c191681555b5050505050600190811b01905550565b600083516117a18184602088016112f3565b8351908301906117b58183602088016112f3565b01949350505050565b6000600182016117d0576117d0611660565b5060010190565b6040815260006117ea6040830185611317565b90508260208301529392505050565b6001600160a01b038581168252841660208201526040810183905260806060820181905260009061182c90830184611317565b9695505050505050565b60006020828403121561184857600080fd5b8151610e4a816112c056fea2646970667358221220dad0617636c08d0a1e39173a01ef2bb3adcddce31dd9f6ec7a2d8a313e1d644064736f6c63430008140033",
  "linkReferences": {},
  "deployedLinkReferences": {}
}